{
  "_format": "hh-sol-artifact-1",
  "contractName": "MerkleAirdrop",
  "sourceName": "contracts/MerkleAirdrop.sol",
  "abi": [
    {
      "inputs": [
        {
          "internalType": "address",
          "name": "_airDropTokenAddress",
          "type": "address"
        },
        {
          "internalType": "bytes32",
          "name": "_merkleRoot",
          "type": "bytes32"
        }
      ],
      "stateMutability": "nonpayable",
      "type": "constructor"
    },
    {
      "anonymous": false,
      "inputs": [
        {
          "indexed": true,
          "internalType": "address",
          "name": "_address",
          "type": "address"
        },
        {
          "indexed": false,
          "internalType": "uint256",
          "name": "_amount",
          "type": "uint256"
        }
      ],
      "name": "SuccessfulClaim",
      "type": "event"
    },
    {
      "inputs": [],
      "name": "airDropTokenAddress",
      "outputs": [
        {
          "internalType": "address",
          "name": "",
          "type": "address"
        }
      ],
      "stateMutability": "view",
      "type": "function"
    },
    {
      "inputs": [
        {
          "internalType": "uint256",
          "name": "amount",
          "type": "uint256"
        },
        {
          "internalType": "bytes32[]",
          "name": "proof",
          "type": "bytes32[]"
        }
      ],
      "name": "claimAirdrop",
      "outputs": [],
      "stateMutability": "nonpayable",
      "type": "function"
    },
    {
      "inputs": [],
      "name": "getContractBalance",
      "outputs": [
        {
          "internalType": "uint256",
          "name": "",
          "type": "uint256"
        }
      ],
      "stateMutability": "view",
      "type": "function"
    },
    {
      "inputs": [
        {
          "internalType": "address",
          "name": "",
          "type": "address"
        }
      ],
      "name": "hasClaimed",
      "outputs": [
        {
          "internalType": "bool",
          "name": "",
          "type": "bool"
        }
      ],
      "stateMutability": "view",
      "type": "function"
    },
    {
      "inputs": [],
      "name": "merkleRoot",
      "outputs": [
        {
          "internalType": "bytes32",
          "name": "",
          "type": "bytes32"
        }
      ],
      "stateMutability": "view",
      "type": "function"
    }
  ],
  "bytecode": "0x608060405234801561001057600080fd5b5060405162000c0038038062000c008339818101604052810190610034919061011b565b816000806101000a81548173ffffffffffffffffffffffffffffffffffffffff021916908373ffffffffffffffffffffffffffffffffffffffff16021790555080600181905550505061015b565b600080fd5b600073ffffffffffffffffffffffffffffffffffffffff82169050919050565b60006100b282610087565b9050919050565b6100c2816100a7565b81146100cd57600080fd5b50565b6000815190506100df816100b9565b92915050565b6000819050919050565b6100f8816100e5565b811461010357600080fd5b50565b600081519050610115816100ef565b92915050565b6000806040838503121561013257610131610082565b5b6000610140858286016100d0565b925050602061015185828601610106565b9150509250929050565b610a95806200016b6000396000f3fe608060405234801561001057600080fd5b50600436106100575760003560e01c80630bcae1ac1461005c5780632eb4a7ab146100785780636f9fb98a1461009657806373b2e80e146100b45780639ad48ca2146100e4575b600080fd5b61007660048036038101906100719190610632565b610102565b005b6100806103f8565b60405161008d91906106ab565b60405180910390f35b61009e6103fe565b6040516100ab91906106d5565b60405180910390f35b6100ce60048036038101906100c9919061074e565b6104a0565b6040516100db9190610796565b60405180910390f35b6100ec6104c0565b6040516100f991906107c0565b60405180910390f35b600260003373ffffffffffffffffffffffffffffffffffffffff1673ffffffffffffffffffffffffffffffffffffffff16815260200190815260200160002060009054906101000a900460ff161561018f576040517f08c379a000000000000000000000000000000000000000000000000000000000815260040161018690610838565b60405180910390fd5b600033846040516020016101a4929190610858565b604051602081830303815290604052805190602001206040516020016101ca91906108a2565b604051602081830303815290604052805190602001209050610230838380806020026020016040519081016040528093929190818152602001838360200280828437600081840152601f19601f82011690508083019250505050505050600154836104e4565b61026f576040517f08c379a000000000000000000000000000000000000000000000000000000000815260040161026690610909565b60405180910390fd5b6001600260003373ffffffffffffffffffffffffffffffffffffffff1673ffffffffffffffffffffffffffffffffffffffff16815260200190815260200160002060006101000a81548160ff02191690831515021790555060008054906101000a900473ffffffffffffffffffffffffffffffffffffffff1673ffffffffffffffffffffffffffffffffffffffff1663a9059cbb33866040518363ffffffff1660e01b8152600401610322929190610858565b6020604051808303816000875af1158015610341573d6000803e3d6000fd5b505050506040513d601f19601f820116820180604052508101906103659190610955565b6103a4576040517f08c379a000000000000000000000000000000000000000000000000000000000815260040161039b906109ce565b60405180910390fd5b3373ffffffffffffffffffffffffffffffffffffffff167f202cbacd7e5badcca8e37bda47aefed3ff6e95b4dbf6b2823d445ae9a989a832856040516103ea91906106d5565b60405180910390a250505050565b60015481565b60008060009054906101000a900473ffffffffffffffffffffffffffffffffffffffff1673ffffffffffffffffffffffffffffffffffffffff166370a08231306040518263ffffffff1660e01b815260040161045a91906107c0565b602060405180830381865afa158015610477573d6000803e3d6000fd5b505050506040513d601f19601f8201168201806040525081019061049b9190610a03565b905090565b60026020528060005260406000206000915054906101000a900460ff1681565b60008054906101000a900473ffffffffffffffffffffffffffffffffffffffff1681565b6000826104f185846104fb565b1490509392505050565b60008082905060005b8451811015610540576105318286838151811061052457610523610a30565b5b602002602001015161054b565b91508080600101915050610504565b508091505092915050565b60008183106105635761055e8284610576565b61056e565b61056d8383610576565b5b905092915050565b600082600052816020526040600020905092915050565b600080fd5b600080fd5b6000819050919050565b6105aa81610597565b81146105b557600080fd5b50565b6000813590506105c7816105a1565b92915050565b600080fd5b600080fd5b600080fd5b60008083601f8401126105f2576105f16105cd565b5b8235905067ffffffffffffffff81111561060f5761060e6105d2565b5b60208301915083602082028301111561062b5761062a6105d7565b5b9250929050565b60008060006040848603121561064b5761064a61058d565b5b6000610659868287016105b8565b935050602084013567ffffffffffffffff81111561067a57610679610592565b5b610686868287016105dc565b92509250509250925092565b6000819050919050565b6106a581610692565b82525050565b60006020820190506106c0600083018461069c565b92915050565b6106cf81610597565b82525050565b60006020820190506106ea60008301846106c6565b92915050565b600073ffffffffffffffffffffffffffffffffffffffff82169050919050565b600061071b826106f0565b9050919050565b61072b81610710565b811461073657600080fd5b50565b60008135905061074881610722565b92915050565b6000602082840312156107645761076361058d565b5b600061077284828501610739565b91505092915050565b60008115159050919050565b6107908161077b565b82525050565b60006020820190506107ab6000830184610787565b92915050565b6107ba81610710565b82525050565b60006020820190506107d560008301846107b1565b92915050565b600082825260208201905092915050565b7f41697264726f7020616c726561647920636c61696d65642e0000000000000000600082015250565b60006108226018836107db565b915061082d826107ec565b602082019050919050565b6000602082019050818103600083015261085181610815565b9050919050565b600060408201905061086d60008301856107b1565b61087a60208301846106c6565b9392505050565b6000819050919050565b61089c61089782610692565b610881565b82525050565b60006108ae828461088b565b60208201915081905092915050565b7f496e76616c69642070726f6f662e000000000000000000000000000000000000600082015250565b60006108f3600e836107db565b91506108fe826108bd565b602082019050919050565b60006020820190508181036000830152610922816108e6565b9050919050565b6109328161077b565b811461093d57600080fd5b50565b60008151905061094f81610929565b92915050565b60006020828403121561096b5761096a61058d565b5b600061097984828501610940565b91505092915050565b7f546f6b656e207472616e73666572206661696c65642e00000000000000000000600082015250565b60006109b86016836107db565b91506109c382610982565b602082019050919050565b600060208201905081810360008301526109e7816109ab565b9050919050565b6000815190506109fd816105a1565b92915050565b600060208284031215610a1957610a1861058d565b5b6000610a27848285016109ee565b91505092915050565b7f4e487b7100000000000000000000000000000000000000000000000000000000600052603260045260246000fdfea264697066735822122072a62859fd2ab3bcfd1a72a7daee7bd311d05b59cefa7c715c2b471594d90b2764736f6c63430008180033",
  "linkReferences": {},
  "deployedLinkReferences": {}
}