{
  "_format": "hh-sol-artifact-1",
  "contractName": "MerkleAirdrop",
  "sourceName": "contracts/MerkleAirdrop.sol",
  "abi": [
    {
      "inputs": [
        {
          "internalType": "address",
          "name": "_airDropTokenAddress",
          "type": "address"
        },
        {
          "internalType": "bytes32",
          "name": "_merkleRoot",
          "type": "bytes32"
        }
      ],
      "stateMutability": "nonpayable",
      "type": "constructor"
    },
    {
      "anonymous": false,
      "inputs": [
        {
          "indexed": true,
          "internalType": "address",
          "name": "_address",
          "type": "address"
        },
        {
          "indexed": false,
          "internalType": "uint256",
          "name": "_amount",
          "type": "uint256"
        }
      ],
      "name": "SuccessfulClaim",
      "type": "event"
    },
    {
      "inputs": [],
      "name": "airDropTokenAddress",
      "outputs": [
        {
          "internalType": "address",
          "name": "",
          "type": "address"
        }
      ],
      "stateMutability": "view",
      "type": "function"
    },
    {
      "inputs": [
        {
          "internalType": "uint256",
          "name": "amount",
          "type": "uint256"
        },
        {
          "internalType": "bytes32[]",
          "name": "proof",
          "type": "bytes32[]"
        }
      ],
      "name": "claimAirdrop",
      "outputs": [],
      "stateMutability": "nonpayable",
      "type": "function"
    },
    {
      "inputs": [
        {
          "internalType": "address",
          "name": "",
          "type": "address"
        }
      ],
      "name": "hasClaimed",
      "outputs": [
        {
          "internalType": "bool",
          "name": "",
          "type": "bool"
        }
      ],
      "stateMutability": "view",
      "type": "function"
    },
    {
      "inputs": [],
      "name": "merkleRoot",
      "outputs": [
        {
          "internalType": "bytes32",
          "name": "",
          "type": "bytes32"
        }
      ],
      "stateMutability": "view",
      "type": "function"
    }
  ],
  "bytecode": "0x608060405234801561001057600080fd5b50604051610af0380380610af083398181016040528101906100329190610119565b816000806101000a81548173ffffffffffffffffffffffffffffffffffffffff021916908373ffffffffffffffffffffffffffffffffffffffff160217905550806001819055505050610159565b600080fd5b600073ffffffffffffffffffffffffffffffffffffffff82169050919050565b60006100b082610085565b9050919050565b6100c0816100a5565b81146100cb57600080fd5b50565b6000815190506100dd816100b7565b92915050565b6000819050919050565b6100f6816100e3565b811461010157600080fd5b50565b600081519050610113816100ed565b92915050565b600080604083850312156101305761012f610080565b5b600061013e858286016100ce565b925050602061014f85828601610104565b9150509250929050565b610988806101686000396000f3fe608060405234801561001057600080fd5b506004361061004c5760003560e01c80630bcae1ac146100515780632eb4a7ab1461006d57806373b2e80e1461008b5780639ad48ca2146100bb575b600080fd5b61006b60048036038101906100669190610567565b6100d9565b005b6100756103cf565b60405161008291906105e0565b60405180910390f35b6100a560048036038101906100a09190610659565b6103d5565b6040516100b291906106a1565b60405180910390f35b6100c36103f5565b6040516100d091906106cb565b60405180910390f35b600260003373ffffffffffffffffffffffffffffffffffffffff1673ffffffffffffffffffffffffffffffffffffffff16815260200190815260200160002060009054906101000a900460ff1615610166576040517f08c379a000000000000000000000000000000000000000000000000000000000815260040161015d90610743565b60405180910390fd5b6000338460405160200161017b929190610772565b604051602081830303815290604052805190602001206040516020016101a191906107bc565b604051602081830303815290604052805190602001209050610207838380806020026020016040519081016040528093929190818152602001838360200280828437600081840152601f19601f8201169050808301925050505050505060015483610419565b610246576040517f08c379a000000000000000000000000000000000000000000000000000000000815260040161023d90610823565b60405180910390fd5b6001600260003373ffffffffffffffffffffffffffffffffffffffff1673ffffffffffffffffffffffffffffffffffffffff16815260200190815260200160002060006101000a81548160ff02191690831515021790555060008054906101000a900473ffffffffffffffffffffffffffffffffffffffff1673ffffffffffffffffffffffffffffffffffffffff1663a9059cbb33866040518363ffffffff1660e01b81526004016102f9929190610772565b6020604051808303816000875af1158015610318573d6000803e3d6000fd5b505050506040513d601f19601f8201168201806040525081019061033c919061086f565b61037b576040517f08c379a0000000000000000000000000000000000000000000000000000000008152600401610372906108e8565b60405180910390fd5b3373ffffffffffffffffffffffffffffffffffffffff167f202cbacd7e5badcca8e37bda47aefed3ff6e95b4dbf6b2823d445ae9a989a832856040516103c19190610908565b60405180910390a250505050565b60015481565b60026020528060005260406000206000915054906101000a900460ff1681565b60008054906101000a900473ffffffffffffffffffffffffffffffffffffffff1681565b6000826104268584610430565b1490509392505050565b60008082905060005b8451811015610475576104668286838151811061045957610458610923565b5b6020026020010151610480565b91508080600101915050610439565b508091505092915050565b60008183106104985761049382846104ab565b6104a3565b6104a283836104ab565b5b905092915050565b600082600052816020526040600020905092915050565b600080fd5b600080fd5b6000819050919050565b6104df816104cc565b81146104ea57600080fd5b50565b6000813590506104fc816104d6565b92915050565b600080fd5b600080fd5b600080fd5b60008083601f84011261052757610526610502565b5b8235905067ffffffffffffffff81111561054457610543610507565b5b6020830191508360208202830111156105605761055f61050c565b5b9250929050565b6000806000604084860312156105805761057f6104c2565b5b600061058e868287016104ed565b935050602084013567ffffffffffffffff8111156105af576105ae6104c7565b5b6105bb86828701610511565b92509250509250925092565b6000819050919050565b6105da816105c7565b82525050565b60006020820190506105f560008301846105d1565b92915050565b600073ffffffffffffffffffffffffffffffffffffffff82169050919050565b6000610626826105fb565b9050919050565b6106368161061b565b811461064157600080fd5b50565b6000813590506106538161062d565b92915050565b60006020828403121561066f5761066e6104c2565b5b600061067d84828501610644565b91505092915050565b60008115159050919050565b61069b81610686565b82525050565b60006020820190506106b66000830184610692565b92915050565b6106c58161061b565b82525050565b60006020820190506106e060008301846106bc565b92915050565b600082825260208201905092915050565b7f41697264726f7020616c726561647920636c61696d65642e0000000000000000600082015250565b600061072d6018836106e6565b9150610738826106f7565b602082019050919050565b6000602082019050818103600083015261075c81610720565b9050919050565b61076c816104cc565b82525050565b600060408201905061078760008301856106bc565b6107946020830184610763565b9392505050565b6000819050919050565b6107b66107b1826105c7565b61079b565b82525050565b60006107c882846107a5565b60208201915081905092915050565b7f496e76616c69642070726f6f662e000000000000000000000000000000000000600082015250565b600061080d600e836106e6565b9150610818826107d7565b602082019050919050565b6000602082019050818103600083015261083c81610800565b9050919050565b61084c81610686565b811461085757600080fd5b50565b60008151905061086981610843565b92915050565b600060208284031215610885576108846104c2565b5b60006108938482850161085a565b91505092915050565b7f546f6b656e207472616e73666572206661696c65642e00000000000000000000600082015250565b60006108d26016836106e6565b91506108dd8261089c565b602082019050919050565b60006020820190508181036000830152610901816108c5565b9050919050565b600060208201905061091d6000830184610763565b92915050565b7f4e487b7100000000000000000000000000000000000000000000000000000000600052603260045260246000fdfea264697066735822122009523058f114ec7d3a0f6b7f167396c15bcc4f71684cbc108e4f9de4e8e9116264736f6c63430008180033",
  "linkReferences": {},
  "deployedLinkReferences": {}
}